{
  "contractName": "Flashloan",
  "abi": [
    {
      "inputs": [
        {
          "name": "kyberAddress",
          "type": "address"
        },
        {
          "name": "uniswapAddress",
          "type": "address"
        },
        {
          "name": "wethAddress",
          "type": "address"
        },
        {
          "name": "daiAddress",
          "type": "address"
        },
        {
          "name": "beneficiaryAddress",
          "type": "address"
        }
      ],
      "payable": false,
      "stateMutability": "nonpayable",
      "type": "constructor"
    },
    {
      "payable": true,
      "stateMutability": "payable",
      "type": "fallback"
    },
    {
      "anonymous": false,
      "inputs": [
        {
          "indexed": false,
          "name": "direction",
          "type": "uint8"
        },
        {
          "indexed": false,
          "name": "profit",
          "type": "uint256"
        },
        {
          "indexed": false,
          "name": "date",
          "type": "uint256"
        }
      ],
      "name": "NewArbitrage",
      "type": "event"
    },
    {
      "constant": false,
      "inputs": [
        {
          "name": "sender",
          "type": "address"
        },
        {
          "components": [
            {
              "name": "owner",
              "type": "address"
            },
            {
              "name": "number",
              "type": "uint256"
            }
          ],
          "name": "account",
          "type": "tuple"
        },
        {
          "name": "data",
          "type": "bytes"
        }
      ],
      "name": "callFunction",
      "outputs": [],
      "payable": false,
      "stateMutability": "nonpayable",
      "type": "function"
    },
    {
      "constant": false,
      "inputs": [
        {
          "name": "_solo",
          "type": "address"
        },
        {
          "name": "_token",
          "type": "address"
        },
        {
          "name": "_amount",
          "type": "uint256"
        },
        {
          "name": "_direction",
          "type": "uint8"
        }
      ],
      "name": "initiateFlashloan",
      "outputs": [],
      "payable": false,
      "stateMutability": "nonpayable",
      "type": "function"
    }
  ],
  "bytecode": "0x60806040523480156200001157600080fd5b5060405160a0806200287d833981018060405262000033919081019062000198565b846000806101000a81548173ffffffffffffffffffffffffffffffffffffffff021916908373ffffffffffffffffffffffffffffffffffffffff16021790555083600160006101000a81548173ffffffffffffffffffffffffffffffffffffffff021916908373ffffffffffffffffffffffffffffffffffffffff16021790555082600260006101000a81548173ffffffffffffffffffffffffffffffffffffffff021916908373ffffffffffffffffffffffffffffffffffffffff16021790555081600360006101000a81548173ffffffffffffffffffffffffffffffffffffffff021916908373ffffffffffffffffffffffffffffffffffffffff16021790555080600460006101000a81548173ffffffffffffffffffffffffffffffffffffffff021916908373ffffffffffffffffffffffffffffffffffffffff16021790555050505050506200024e565b60006200019082516200021a565b905092915050565b600080600080600060a08688031215620001b157600080fd5b6000620001c18882890162000182565b9550506020620001d48882890162000182565b9450506040620001e78882890162000182565b9350506060620001fa8882890162000182565b92505060806200020d8882890162000182565b9150509295509295909350565b600062000227826200022e565b9050919050565b600073ffffffffffffffffffffffffffffffffffffffff82169050919050565b61261f806200025e6000396000f3fe6080604052600436106100295760003560e01c80638b4187131461002b578063c013147614610054575b005b34801561003757600080fd5b50610052600480360361004d91908101906119cd565b61007d565b005b34801561006057600080fd5b5061007b6004803603610076919081019061196a565b610ec7565b005b6100856115a9565b818060200190516100999190810190611a9e565b90506000600360009054906101000a900473ffffffffffffffffffffffffffffffffffffffff1673ffffffffffffffffffffffffffffffffffffffff166370a08231306040518263ffffffff1660e01b81526004016100f89190611ff4565b60206040518083038186803b15801561011057600080fd5b505afa158015610124573d6000803e3d6000fd5b505050506040513d601f19601f820116820180604052506101489190810190611ac7565b90506000600181111561015757fe5b8260000151600181111561016757fe5b14156106bc57600360009054906101000a900473ffffffffffffffffffffffffffffffffffffffff1673ffffffffffffffffffffffffffffffffffffffff1663095ea7b36000809054906101000a900473ffffffffffffffffffffffffffffffffffffffff16836040518363ffffffff1660e01b81526004016101eb92919061200f565b602060405180830381600087803b15801561020557600080fd5b505af1158015610219573d6000803e3d6000fd5b505050506040513d601f19601f8201168201806040525061023d9190810190611a75565b5060008060009054906101000a900473ffffffffffffffffffffffffffffffffffffffff1673ffffffffffffffffffffffffffffffffffffffff1663809a9e55600360009054906101000a900473ffffffffffffffffffffffffffffffffffffffff1673eeeeeeeeeeeeeeeeeeeeeeeeeeeeeeeeeeeeeeee856040518463ffffffff1660e01b81526004016102d49392919061206f565b604080518083038186803b1580156102eb57600080fd5b505afa1580156102ff573d6000803e3d6000fd5b505050506040513d601f19601f820116820180604052506103239190810190611af0565b5090506000809054906101000a900473ffffffffffffffffffffffffffffffffffffffff1673ffffffffffffffffffffffffffffffffffffffff16633bba21dc600360009054906101000a900473ffffffffffffffffffffffffffffffffffffffff1684846040518463ffffffff1660e01b81526004016103a6939291906120cf565b602060405180830381600087803b1580156103c057600080fd5b505af11580156103d4573d6000803e3d6000fd5b505050506040513d601f19601f820116820180604052506103f89190810190611ac7565b506060600260405190808252806020026020018201604052801561042b5781602001602082028038833980820191505090505b509050600260009054906101000a900473ffffffffffffffffffffffffffffffffffffffff168160008151811061045e57fe5b602002602001019073ffffffffffffffffffffffffffffffffffffffff16908173ffffffffffffffffffffffffffffffffffffffff1681525050600360009054906101000a900473ffffffffffffffffffffffffffffffffffffffff16816001815181106104c857fe5b602002602001019073ffffffffffffffffffffffffffffffffffffffff16908173ffffffffffffffffffffffffffffffffffffffff16815250506060600160009054906101000a900473ffffffffffffffffffffffffffffffffffffffff1673ffffffffffffffffffffffffffffffffffffffff1663d06ca61f3073ffffffffffffffffffffffffffffffffffffffff1631846040518363ffffffff1660e01b81526004016105789291906121d3565b60006040518083038186803b15801561059057600080fd5b505afa1580156105a4573d6000803e3d6000fd5b505050506040513d6000823e3d601f19601f820116820180604052506105cd9190810190611a34565b9050600160009054906101000a900473ffffffffffffffffffffffffffffffffffffffff1673ffffffffffffffffffffffffffffffffffffffff16637ff36ab53073ffffffffffffffffffffffffffffffffffffffff16318360018151811061063257fe5b60200260200101518530426040518663ffffffff1660e01b815260040161065c9493929190612203565b6000604051808303818588803b15801561067557600080fd5b505af1158015610689573d6000803e3d6000fd5b50505050506040513d6000823e3d601f19601f820116820180604052506106b39190810190611a34565b50505050610c08565b600360009054906101000a900473ffffffffffffffffffffffffffffffffffffffff1673ffffffffffffffffffffffffffffffffffffffff1663095ea7b3600160009054906101000a900473ffffffffffffffffffffffffffffffffffffffff16836040518363ffffffff1660e01b815260040161073b92919061200f565b602060405180830381600087803b15801561075557600080fd5b505af1158015610769573d6000803e3d6000fd5b505050506040513d601f19601f8201168201806040525061078d9190810190611a75565b50606060026040519080825280602002602001820160405280156107c05781602001602082028038833980820191505090505b509050600360009054906101000a900473ffffffffffffffffffffffffffffffffffffffff16816000815181106107f357fe5b602002602001019073ffffffffffffffffffffffffffffffffffffffff16908173ffffffffffffffffffffffffffffffffffffffff1681525050600260009054906101000a900473ffffffffffffffffffffffffffffffffffffffff168160018151811061085d57fe5b602002602001019073ffffffffffffffffffffffffffffffffffffffff16908173ffffffffffffffffffffffffffffffffffffffff16815250506060600160009054906101000a900473ffffffffffffffffffffffffffffffffffffffff1673ffffffffffffffffffffffffffffffffffffffff1663d06ca61f84846040518363ffffffff1660e01b81526004016108f69291906121d3565b60006040518083038186803b15801561090e57600080fd5b505afa158015610922573d6000803e3d6000fd5b505050506040513d6000823e3d601f19601f8201168201806040525061094b9190810190611a34565b9050600160009054906101000a900473ffffffffffffffffffffffffffffffffffffffff1673ffffffffffffffffffffffffffffffffffffffff166318cbafe5848360018151811061099957fe5b60200260200101518530426040518663ffffffff1660e01b81526004016109c495949392919061224f565b600060405180830381600087803b1580156109de57600080fd5b505af11580156109f2573d6000803e3d6000fd5b505050506040513d6000823e3d601f19601f82011682018060405250610a1b9190810190611a34565b5060008060009054906101000a900473ffffffffffffffffffffffffffffffffffffffff1673ffffffffffffffffffffffffffffffffffffffff1663809a9e5573eeeeeeeeeeeeeeeeeeeeeeeeeeeeeeeeeeeeeeee600360009054906101000a900473ffffffffffffffffffffffffffffffffffffffff163073ffffffffffffffffffffffffffffffffffffffff16316040518463ffffffff1660e01b8152600401610ac99392919061206f565b604080518083038186803b158015610ae057600080fd5b505afa158015610af4573d6000803e3d6000fd5b505050506040513d601f19601f82011682018060405250610b189190810190611af0565b5090506000809054906101000a900473ffffffffffffffffffffffffffffffffffffffff1673ffffffffffffffffffffffffffffffffffffffff16637a2a04563073ffffffffffffffffffffffffffffffffffffffff1631600360009054906101000a900473ffffffffffffffffffffffffffffffffffffffff16846040518463ffffffff1660e01b8152600401610bb19291906120a6565b6020604051808303818588803b158015610bca57600080fd5b505af1158015610bde573d6000803e3d6000fd5b50505050506040513d601f19601f82011682018060405250610c039190810190611ac7565b505050505b8160200151600360009054906101000a900473ffffffffffffffffffffffffffffffffffffffff1673ffffffffffffffffffffffffffffffffffffffff166370a08231306040518263ffffffff1660e01b8152600401610c689190611ff4565b60206040518083038186803b158015610c8057600080fd5b505afa158015610c94573d6000803e3d6000fd5b505050506040513d601f19601f82011682018060405250610cb89190810190611ac7565b1015610cf9576040517f08c379a0000000000000000000000000000000000000000000000000000000008152600401610cf09061215d565b60405180910390fd5b60008260200151600360009054906101000a900473ffffffffffffffffffffffffffffffffffffffff1673ffffffffffffffffffffffffffffffffffffffff166370a08231306040518263ffffffff1660e01b8152600401610d5b9190611ff4565b60206040518083038186803b158015610d7357600080fd5b505afa158015610d87573d6000803e3d6000fd5b505050506040513d601f19601f82011682018060405250610dab9190810190611ac7565b039050600360009054906101000a900473ffffffffffffffffffffffffffffffffffffffff1673ffffffffffffffffffffffffffffffffffffffff1663a9059cbb600460009054906101000a900473ffffffffffffffffffffffffffffffffffffffff16836040518363ffffffff1660e01b8152600401610e2d92919061200f565b602060405180830381600087803b158015610e4757600080fd5b505af1158015610e5b573d6000803e3d6000fd5b505050506040513d601f19601f82011682018060405250610e7f9190810190611a75565b507fa89b78c8d1240154beaf4b865d2d7cb794ac0f358c618aef3de102cf4a4ee42d83600001518242604051610eb793929190612106565b60405180910390a1505050505050565b60008490506000610ed88686611130565b90506000610ee5856112e2565b90508573ffffffffffffffffffffffffffffffffffffffff1663095ea7b388836040518363ffffffff1660e01b8152600401610f2292919061200f565b602060405180830381600087803b158015610f3c57600080fd5b505af1158015610f50573d6000803e3d6000fd5b505050506040513d601f19601f82011682018060405250610f749190810190611a75565b5060606003604051908082528060200260200182016040528015610fb257816020015b610f9f6115ce565b815260200190600190039081610f975790505b509050610fbf83876112ff565b81600081518110610fcc57fe5b602002602001018190525061101e6040518060400160405280876001811115610ff157fe5b81526020018481525060405160200161100a919061219d565b6040516020818303038152906040526113b8565b8160018151811061102b57fe5b60200260200101819052506110408383611462565b8160028151811061104d57fe5b60200260200101819052506060600160405190808252806020026020018201604052801561109557816020015b61108261163a565b81526020019060019003908161107a5790505b5090506110a061151b565b816000815181106110ad57fe5b60200260200101819052508473ffffffffffffffffffffffffffffffffffffffff1663a67a6a4582846040518363ffffffff1660e01b81526004016110f3929190612038565b600060405180830381600087803b15801561110d57600080fd5b505af1158015611121573d6000803e3d6000fd5b50505050505050505050505050565b60008083905060008173ffffffffffffffffffffffffffffffffffffffff1663295c39a56040518163ffffffff1660e01b815260040160206040518083038186803b15801561117e57600080fd5b505afa158015611192573d6000803e3d6000fd5b505050506040513d601f19601f820116820180604052506111b69190810190611ac7565b9050600080600090505b828110156112a0578373ffffffffffffffffffffffffffffffffffffffff1663062bd3e9826040518263ffffffff1660e01b815260040161120191906121b8565b60206040518083038186803b15801561121957600080fd5b505afa15801561122d573d6000803e3d6000fd5b505050506040513d601f19601f820116820180604052506112519190810190611941565b91508573ffffffffffffffffffffffffffffffffffffffff168273ffffffffffffffffffffffffffffffffffffffff16141561129357809450505050506112dc565b80806001019150506111c0565b506040517f08c379a00000000000000000000000000000000000000000000000000000000081526004016112d39061217d565b60405180910390fd5b92915050565b60006112f860028361155490919063ffffffff16565b9050919050565b61130761166a565b6040518061010001604052806001600881111561132057fe5b81526020016000815260200160405180608001604052806000151581526020016000600181111561134d57fe5b81526020016000600181111561135f57fe5b8152602001858152508152602001848152602001600081526020013073ffffffffffffffffffffffffffffffffffffffff1681526020016000815260200160405180602001604052806000815250815250905092915050565b6113c061166a565b6040518061010001604052806008808111156113d857fe5b81526020016000815260200160405180608001604052806000151581526020016000600181111561140557fe5b81526020016000600181111561141757fe5b81526020016000815250815260200160008152602001600081526020013073ffffffffffffffffffffffffffffffffffffffff16815260200160008152602001838152509050919050565b61146a61166a565b6040518061010001604052806000600881111561148357fe5b8152602001600081526020016040518060800160405280600115158152602001600060018111156114b057fe5b8152602001600060018111156114c257fe5b8152602001858152508152602001848152602001600081526020013073ffffffffffffffffffffffffffffffffffffffff1681526020016000815260200160405180602001604052806000815250815250905092915050565b6115236116d6565b60405180604001604052803073ffffffffffffffffffffffffffffffffffffffff1681526020016001815250905090565b60008082840190508381101561159f576040517f08c379a00000000000000000000000000000000000000000000000000000000081526004016115969061213d565b60405180910390fd5b8091505092915050565b6040518060400160405280600060018111156115c157fe5b8152602001600081525090565b604051806101600160405280600060088111156115e757fe5b8152602001600081526020016115fb611706565b81526020016000815260200160008152602001600073ffffffffffffffffffffffffffffffffffffffff16815260200160008152602001606081525090565b6040518060400160405280600073ffffffffffffffffffffffffffffffffffffffff168152602001600081525090565b6040518061016001604052806000600881111561168357fe5b815260200160008152602001611697611706565b81526020016000815260200160008152602001600073ffffffffffffffffffffffffffffffffffffffff16815260200160008152602001606081525090565b6040518060400160405280600073ffffffffffffffffffffffffffffffffffffffff168152602001600081525090565b60405180608001604052806000151581526020016000600181111561172757fe5b81526020016000600181111561173957fe5b8152602001600081525090565b60006117528235612491565b905092915050565b60006117668251612491565b905092915050565b600082601f83011261177f57600080fd5b815161179261178d826122d6565b6122a9565b915081818352602084019350602081019050838560208402820111156117b757600080fd5b60005b838110156117e757816117cd888261192d565b8452602084019350602083019250506001810190506117ba565b5050505092915050565b60006117fd82516124a3565b905092915050565b600082601f83011261181657600080fd5b8135611829611824826122fe565b6122a9565b9150808252602083016020830185838301111561184557600080fd5b611850838284612592565b50505092915050565b600061186582356124af565b905092915050565b600061187982516124af565b905092915050565b60006040828403121561189357600080fd5b61189d60406122a9565b905060006118ad8482850161186d565b60008301525060206118c18482850161192d565b60208301525092915050565b6000604082840312156118df57600080fd5b6118e960406122a9565b905060006118f984828501611746565b600083015250602061190d84828501611919565b60208301525092915050565b600061192582356124e6565b905092915050565b600061193982516124e6565b905092915050565b60006020828403121561195357600080fd5b60006119618482850161175a565b91505092915050565b6000806000806080858703121561198057600080fd5b600061198e87828801611746565b945050602061199f87828801611746565b93505060406119b087828801611919565b92505060606119c187828801611859565b91505092959194509250565b6000806000608084860312156119e257600080fd5b60006119f086828701611746565b9350506020611a01868287016118cd565b925050606084013567ffffffffffffffff811115611a1e57600080fd5b611a2a86828701611805565b9150509250925092565b600060208284031215611a4657600080fd5b600082015167ffffffffffffffff811115611a6057600080fd5b611a6c8482850161176e565b91505092915050565b600060208284031215611a8757600080fd5b6000611a95848285016117f1565b91505092915050565b600060408284031215611ab057600080fd5b6000611abe84828501611881565b91505092915050565b600060208284031215611ad957600080fd5b6000611ae78482850161192d565b91505092915050565b60008060408385031215611b0357600080fd5b6000611b118582860161192d565b9250506020611b228582860161192d565b9150509250929050565b6000611b388383611b7f565b60208301905092915050565b6000611b508383611e70565b905092915050565b6000611b648383611fa7565b60408301905092915050565b611b79816124f0565b82525050565b611b88816123f9565b82525050565b611b97816123f9565b82525050565b6000611ba882612351565b611bb281856123a4565b9350611bbd8361232a565b60005b82811015611beb57611bd3868351611b2c565b9550611bde8261237d565b9150600181019050611bc0565b50849250505092915050565b6000611c028261235c565b611c0c81856123b5565b935083602082028501611c1e85612337565b60005b84811015611c57578383038852611c39838351611b44565b9250611c448261238a565b9150602088019750600181019050611c21565b508196508694505050505092915050565b6000611c7382612367565b611c7d81856123c6565b9350611c8883612344565b60005b82811015611cb657611c9e868351611b58565b9550611ca982612397565b9150600181019050611c8b565b50849250505092915050565b611ccb8161240b565b82525050565b6000611cdc82612372565b611ce681856123d7565b9350611cf68185602086016125a1565b611cff816125d4565b840191505092915050565b611d1381612502565b82525050565b611d2281612526565b82525050565b611d3181612538565b82525050565b611d408161254a565b82525050565b611d4f8161255c565b82525050565b611d5e8161255c565b82525050565b6000611d71601b836123e8565b91507f536166654d6174683a206164646974696f6e206f766572666c6f7700000000006000830152602082019050919050565b6000611db16024836123e8565b91507f4e6f7420656e6f7567682066756e647320746f2072657061792064796478206c60008301527f6f616e21000000000000000000000000000000000000000000000000000000006020830152604082019050919050565b6000611e176024836123e8565b91507f4e6f206d61726b6574496420666f756e6420666f722070726f7669646564207460008301527f6f6b656e000000000000000000000000000000000000000000000000000000006020830152604082019050919050565b600061016083016000830151611e896000860182611d19565b506020830151611e9c6020860182611fd6565b506040830151611eaf6040860182611f52565b506060830151611ec260c0860182611fd6565b506080830151611ed560e0860182611fd6565b5060a0830151611ee9610100860182611b7f565b5060c0830151611efd610120860182611fd6565b5060e0830151848203610140860152611f168282611cd1565b9150508091505092915050565b604082016000820151611f396000850182611d46565b506020820151611f4c6020850182611fd6565b50505050565b608082016000820151611f686000850182611cc2565b506020820151611f7b6020850182611d28565b506040820151611f8e6040850182611d37565b506060820151611fa16060850182611fd6565b50505050565b604082016000820151611fbd6000850182611b7f565b506020820151611fd06020850182611fd6565b50505050565b611fdf81612487565b82525050565b611fee81612487565b82525050565b60006020820190506120096000830184611b70565b92915050565b60006040820190506120246000830185611b8e565b6120316020830184611fe5565b9392505050565b600060408201905081810360008301526120528185611c68565b905081810360208301526120668184611bf7565b90509392505050565b60006060820190506120846000830186611d0a565b6120916020830185611d0a565b61209e6040830184611fe5565b949350505050565b60006040820190506120bb6000830185611d0a565b6120c86020830184611fe5565b9392505050565b60006060820190506120e46000830186611d0a565b6120f16020830185611fe5565b6120fe6040830184611fe5565b949350505050565b600060608201905061211b6000830186611d55565b6121286020830185611fe5565b6121356040830184611fe5565b949350505050565b6000602082019050818103600083015261215681611d64565b9050919050565b6000602082019050818103600083015261217681611da4565b9050919050565b6000602082019050818103600083015261219681611e0a565b9050919050565b60006040820190506121b26000830184611f23565b92915050565b60006020820190506121cd6000830184611fe5565b92915050565b60006040820190506121e86000830185611fe5565b81810360208301526121fa8184611b9d565b90509392505050565b60006080820190506122186000830187611fe5565b818103602083015261222a8186611b9d565b90506122396040830185611b70565b6122466060830184611fe5565b95945050505050565b600060a0820190506122646000830188611fe5565b6122716020830187611fe5565b81810360408301526122838186611b9d565b90506122926060830185611b70565b61229f6080830184611fe5565b9695505050505050565b6000604051905081810181811067ffffffffffffffff821117156122cc57600080fd5b8060405250919050565b600067ffffffffffffffff8211156122ed57600080fd5b602082029050602081019050919050565b600067ffffffffffffffff82111561231557600080fd5b601f19601f8301169050602081019050919050565b6000602082019050919050565b6000602082019050919050565b6000602082019050919050565b600081519050919050565b600081519050919050565b600081519050919050565b600081519050919050565b6000602082019050919050565b6000602082019050919050565b6000602082019050919050565b600082825260208201905092915050565b600082825260208201905092915050565b600082825260208201905092915050565b600082825260208201905092915050565b600082825260208201905092915050565b600061240482612467565b9050919050565b60008115159050919050565b60006009821061242357fe5b819050919050565b60006002821061243757fe5b819050919050565b60006002821061244b57fe5b819050919050565b60006002821061245f57fe5b819050919050565b600073ffffffffffffffffffffffffffffffffffffffff82169050919050565b6000819050919050565b600061249c826124c6565b9050919050565b60008115159050919050565b6000600282106124be57600080fd5b819050919050565b600073ffffffffffffffffffffffffffffffffffffffff82169050919050565b6000819050919050565b60006124fb8261256e565b9050919050565b600061250d82612514565b9050919050565b600061251f82612467565b9050919050565b600061253182612417565b9050919050565b60006125438261242b565b9050919050565b60006125558261243f565b9050919050565b600061256782612453565b9050919050565b600061257982612580565b9050919050565b600061258b82612467565b9050919050565b82818337600083830152505050565b60005b838110156125bf5780820151818401526020810190506125a4565b838111156125ce576000848401525b50505050565b6000601f19601f830116905091905056fea265627a7a72305820335d17a857d237102eda00f7daa26c2717baf6028889b22b4f13f5ade3b03b456c6578706572696d656e74616cf50037",
  "source": "pragma solidity ^0.5.7;\r\npragma experimental ABIEncoderV2;\r\n\r\nimport \"@studydefi/money-legos/dydx/contracts/DydxFlashloanBase.sol\";\r\nimport \"@studydefi/money-legos/dydx/contracts/ICallee.sol\";\r\nimport { KyberNetworkProxy as IKyberNetworkProxy } \r\n       from '@studydefi/money-legos/kyber/contracts/KyberNetworkProxy.sol';\r\n\r\nimport \"@openzeppelin/contracts/token/ERC20/IERC20.sol\";\r\nimport './IUniswapV2Router02.sol';\r\nimport './IWeth.sol';\r\n\r\ncontract Flashloan is ICallee, DydxFlashloanBase {\r\n    enum Direction { KyberToUniswap, UniswapToKyber } \r\n    struct ArbInfo {\r\n        Direction direction;\r\n        uint repayAmount;\r\n    }\r\n\r\n    event NewArbitrage (\r\n      Direction direction,\r\n      uint profit,\r\n      uint date\r\n    );\r\n\r\n    IKyberNetworkProxy kyber;\r\n    IUniswapV2Router02 uniswap;\r\n    IWeth weth;\r\n    IERC20 dai;\r\n    address beneficiary;\r\n    address constant KYBER_ETH_ADDRESS = 0xEeeeeEeeeEeEeeEeEeEeeEEEeeeeEeeeeeeeEEeE;\r\n\r\n    constructor(\r\n        address kyberAddress,\r\n        address uniswapAddress,\r\n        address wethAddress,\r\n        address daiAddress,\r\n        address beneficiaryAddress\r\n    ) public {\r\n      kyber = IKyberNetworkProxy(kyberAddress);\r\n      uniswap = IUniswapV2Router02(uniswapAddress);\r\n      weth = IWeth(wethAddress);\r\n      dai = IERC20(daiAddress);\r\n      beneficiary = beneficiaryAddress;\r\n    }\r\n\r\n    // This is the function that will be called postLoan\r\n    // i.e. Encode the logic to handle your flashloaned funds here\r\n    function callFunction(\r\n        address sender,\r\n        Account.Info memory account,\r\n        bytes memory data\r\n    ) public {\r\n        ArbInfo memory arbInfo = abi.decode(data, (ArbInfo));\r\n        uint256 balanceDai = dai.balanceOf(address(this));\r\n\r\n        if(arbInfo.direction == Direction.KyberToUniswap) {\r\n          //Buy ETH on Kyber\r\n          dai.approve(address(kyber), balanceDai); \r\n          (uint expectedRate, ) = kyber.getExpectedRate(\r\n                                          dai, \r\n                                          IERC20(KYBER_ETH_ADDRESS), \r\n                                          balanceDai\r\n                                         );\r\n          kyber.swapTokenToEther(dai, balanceDai, expectedRate);\r\n\r\n          //Sell ETH on Uniswap\r\n          address[] memory path = new address[](2);\r\n          path[0] = address(weth);\r\n          path[1] = address(dai);\r\n          uint[] memory minOuts = uniswap.getAmountsOut(address(this).balance, path); \r\n          uniswap.swapExactETHForTokens\r\n                 .value(address(this).balance)(\r\n                                      minOuts[1], \r\n                                      path, \r\n                                      address(this), \r\n                                      now\r\n                                    );\r\n        } else {\r\n              //Buy ETH on Uniswap\r\n              dai.approve(address(uniswap), balanceDai); \r\n              address[] memory path = new address[](2);\r\n              path[0] = address(dai);\r\n              path[1] = address(weth);\r\n              uint[] memory minOuts = uniswap.getAmountsOut(balanceDai, path); \r\n              uniswap.swapExactTokensForETH(\r\n                                      balanceDai, \r\n                                      minOuts[1], \r\n                                      path, \r\n                                      address(this), \r\n                                      now\r\n                                    );\r\n\r\n              //Sell ETH on Kyber\r\n              (uint expectedRate, ) = kyber.getExpectedRate(\r\n                                          IERC20(KYBER_ETH_ADDRESS), \r\n                                          dai, \r\n                                          address(this).balance\r\n                                        );\r\n              kyber.swapEtherToToken.value(address(this).balance)(\r\n                                                            dai, \r\n                                                            expectedRate\r\n                                                          );\r\n        }\r\n\r\n        require(\r\n            dai.balanceOf(address(this)) >= arbInfo.repayAmount,\r\n            \"Not enough funds to repay dydx loan!\"\r\n        );\r\n\r\n        uint profit = dai.balanceOf(address(this)) - arbInfo.repayAmount; \r\n        dai.transfer(beneficiary, profit);\r\n        emit NewArbitrage(arbInfo.direction, profit, now);\r\n    }\r\n\r\n    function initiateFlashloan(\r\n      address _solo, \r\n      address _token, \r\n      uint256 _amount, \r\n      Direction _direction)\r\n      external\r\n    {\r\n        ISoloMargin solo = ISoloMargin(_solo);\r\n\r\n        // Get marketId from token address\r\n        uint256 marketId = _getMarketIdFromTokenAddress(_solo, _token);\r\n\r\n        // Calculate repay amount (_amount + (2 wei))\r\n        // Approve transfer from\r\n        uint256 repayAmount = _getRepaymentAmountInternal(_amount);\r\n        IERC20(_token).approve(_solo, repayAmount);\r\n\r\n        // 1. Withdraw $\r\n        // 2. Call callFunction(...)\r\n        // 3. Deposit back $\r\n        Actions.ActionArgs[] memory operations = new Actions.ActionArgs[](3);\r\n\r\n        operations[0] = _getWithdrawAction(marketId, _amount);\r\n        operations[1] = _getCallAction(\r\n            // Encode MyCustomData for callFunction\r\n            abi.encode(ArbInfo({direction: _direction, repayAmount: repayAmount}))\r\n        );\r\n        operations[2] = _getDepositAction(marketId, repayAmount);\r\n\r\n        Account.Info[] memory accountInfos = new Account.Info[](1);\r\n        accountInfos[0] = _getAccountInfo();\r\n\r\n        solo.operate(accountInfos, operations);\r\n    }\r\n\r\n    function() external payable {}\r\n}\r\n",
  "sourcePath": "C:\\Users\\Shivam Agrawal\\Desktop\\Solidity-Development\\Flashloan-Arbitrage-Bot\\contracts\\flashloan.sol",
  "compiler": {
    "name": "solc",
    "version": "0.5.7+commit.6da8b019.Emscripten.clang"
  },
  "schemaVersion": "3.4.3",
  "updatedAt": "2021-12-22T16:39:33.357Z",
  "devdoc": {
    "methods": {}
  },
  "userdoc": {
    "methods": {}
  }
}